:100000000C944C0B0C94740B0C94740B0C94740B9C
:100010000C94740B0C94740B0C94740B0C94740B64
:100020000C94740B0C94740B0C94740B0C94740B54
:100030000C94740B0C94740B0C94740B0C94740B44
:100040000C9442140C94740B0C9410140C94EA133A
:100050000C94740B0C948C140C94740B0C94740B03
:100060000C94740B0C94740BFFE0FFD1AFFF32FFC4
:10007000D0FFFEFFE0FFD1AEFFD0FFFEFFE0FFD1DB
:100080001000FFFEFFD0FFE0FFC1FFD1AED580A87A
:100090003FD300408D142000A1C8DA1281CFD9F1DE
:1000A000DB402EA4A6AFFFD0FFFE0000000025001D
:1000B00028002B0000000000240027002A00040470
:1000C0000404040404040202020202020303030300
:1000D00003030102040810204080010204081020DC
:1000E00001020408102000101000FE0A06A708955F
:1000F00000FFFE0EFE0BFE1010201000FEAAAA004C
:10010000018000000180004A51EA505A51C99E0006
:100110000180000001800000018000555510102072
:100120001000FEAAAA00018000000180003993C2DD
:1001300052325F8A5271938000000180000001807A
:100140000055551010201000FEAAAA0001800000E2
:100150000180003BA5C1243119892471258000004C
:100160000180000001800055551010201000FEAAEB
:10017000AA00018000000180007BA5C1247919C17B
:100180002479258000000180000001800055551071
:1001900010201000FEAAAA00018000000180007952
:1001A000BFC2487A49C248798980000001800000B6
:1001B00001800055551010201000FEAAAA000180F1
:1001C00000000180007A4DC2527B53C2D67A4F8024
:1001D0000000018000000180005555101020100023
:1001E000FEAAAA000180000001800031A5CA287A79
:1001F00031CA2849A5800000018000000180005517
:10020000551010201000FEAAAA00018000000180F5
:100210000073D1CA1073D1CA1073DF80000001804F
:10022000000001800055551010201000FEAAAA0001
:10023000018000000180001E3991401E3191081E8E
:1002400071800000018000000180005555101020D1
:100250001000FEAAAA000180000001800022F9A27D
:10026000203E21A220222180000001800000018088
:100270000055551010201000FEAAAA0001800000B1
:1002800001800020F9A08020F9A0803E818000003C
:100290000180000001800055551010201000FEAABA
:1002A000AA000180000001800022F9A220222194EE
:1002B00020082180000001800000018000555510B9
:1002C00010201000FEAAAA00018000000180003E5C
:1002D000F9A0803EF9A0802081800000018000000C
:1002E00001800055551010201000FEAAAA000180C0
:1002F00000000180001EF1A08820F1A0901E8980DE
:1003000000000180000001800055551010201000F1
:10031000FEAAAA00018000000180001E71A0881CB6
:100320008982883C718000000180000001800055B6
:10033000551010201000FEAAAA00018000000180C4
:10034000001EF9A0201C2182203CF98000000180C1
:10035000000001800055551010201000FEAAAA00D0
:1003600001800000018000391DA510251DA5103950
:10037000DD80000001800000018000555510102034
:100380001000FEAAAA00018000000180007189CA45
:10039000184A09CA08719D80000001800000018090
:1003A0000055551010201000FEAAAA000180000080
:1003B0000180007199CA044A09CA10719D80000029
:1003C0000180000001800055551010201000FEAA89
:1003D000AA00018000000180007199CA044A19CA6C
:1003E00004719980000001800000018000555510C3
:1003F00010201000FEAAAA000180000001800071F8
:1004000085CA0C4A15CA1C71858000000180000055
:1004100001800055551010201000FEAAAA0001808E
:1004200000000180004993EA546A59DBD44A5380A2
:1004300000000180000001800055551010201000C0
:10044000FEAAAA00018000000180003453C29A3144
:10045000178912711380000001800000018000558F
:10046000551010201000FEAAAA0001800000018093
:10047000007BB9C1247939C1247939800000018019
:10048000000001800055551010201000FEAAAA009F
:10049000018000000180003325C4B447ADC4A434FA
:1004A000A58000000180000001800055551010203B
:1004B0001000FEAAAA00018000000180003E89A071
:1004C000D83EA9A0883E89800000018000000180FC
:1004D0000055551010201000FEAAAA00018000004F
:1004E0000180003A5DC252325D8A52719D800000E7
:1004F0000180000001800055551010201000FEAA58
:10050000AA000180000001800079CFC2107991C05B
:10051000507B8F8000000180000001800055551045
:1005200010201000FEAAAA00018000000180001E19
:100530007190801E61901010E18000000180000029
:1005400001800055551010201000FEAAAA0001805D
:1005500000000180000E719080166192100EE18003
:10056000000001800000018000555510102010008F
:10057000FEAAAA00018000000180001C7192801C6C
:1005800061941012E180000001800000018000559C
:10059000551010201000FEAAAA0001800000018062
:1005A0000012719280126192100CE18000000180B3
:1005B0000000018000555500000008000E010A0AE5
:1005C0000804008080808080808000808005040492
:1005D00008020888888888060A0A0801002424245A
:1005E000FC4848FC909090070A0A080100107C9291
:1005F00090701C12927C10070A0A08010062949401
:100600006810102C52528C070A0A08010038444422
:100610002830528A848C7201040408040880808087
:1006200080030C0C0803FF20404080808080808085
:10063000404020030C0C0802FF8040402020202076
:1006400020204040800707070801011092543854C9
:100650009210070707080101101010FE1010100279
:1006600004040803FEC0404080040101080204F0B5
:10067000020202080300C0C0060A0A0801000404BE
:100680000810102020408080060A0A080100304827
:100690008484848484844830050A0A080200206027
:1006A000A0202020202020F8060A0A0801007884D3
:1006B00084041820408080FC060A0A08010078841F
:1006C0008404380404848478060A0A08010008189F
:1006D00028488888FC080808060A0A080100FC80E7
:1006E0008080F80404048478060A0A08010038406F
:1006F0008080F88484848478060A0A080100FC0457
:100700000408080810101010060A0A08010078846E
:100710008484788484848478060A0A0801007884B2
:1007200084847C0404040870020707080301C0C025
:10073000000000C0C00209090803FFC0C00000009B
:10074000C040408005090908020008102040804090
:10075000201008060505080102FC000000FC050940
:1007600009080100804020100810204080060A0A75
:1007700008010078848404081010001010060A0A8A
:10078000080100384494ACA4A4A49C403C060A0A86
:100790000801003048488484FC84848484060A0A62
:1007A000080100F8848484F884848484F8060A0AA2
:1007B00008010078848480808080848478060A0A16
:1007C000080100F08884848484848488F0060A0AFE
:1007D000080100FC808080F880808080FC060A0A86
:1007E000080100FC808080F88080808080060A0AF2
:1007F00008010078848480809C84848C74060A0AB2
:1008000008010084848484FC8484848484050A0A26
:10081000080200F82020202020202020F8070A0AC3
:100820000801003E080808080808888870060A0AB7
:10083000080100848890A0C0C0A0908884060A0A9D
:10084000080100808080808080808080FC060A0A09
:100850000801008484CCCCB4B484848484060A0A5D
:1008600008010084C4C4A4A494948C8C84060A0A4D
:1008700008010078848484848484848478060A0A45
:10088000080100F8848484F88080808080070B0B46
:100890000801FF78848484848484B4CC7806060AB2
:1008A0000A080100F8848484F89088888484060A01
:1008B0000A08010078848480601804848478070A18
:1008C0000A080100FE101010101010101010060A77
:1008D0000A08010084848484848484848478070AD8
:1008E0000A08010082828244444428281010060A23
:1008F0000A08010084848484B4B4CCCC8484060ABD
:100900000A08010084844848303048488484070A33
:100910000A08010082824444281010101010060AB0
:100920000A080100FC0404081020408080FC030C2D
:100930000C0804FFE080808080808080808080E0E0
:10094000060A0A08010080804020201010080404D4
:10095000030C0C0801FFE020202020202020202074
:1009600020E006030308010930488407010108015B
:10097000FFFE03030308020A80402006080808015E
:10098000007884047C84848C74060B0B080100803E
:100990008080B8C484848484C4B806080808010030
:1009A0007884808080808478060B0B080100040422
:1009B00004748C848484848C74060808080100788C
:1009C0008484FC80808478050B0B080100182020AB
:1009D00020F8202020202020060B0B0801FE0474A4
:1009E000888888704078848478060B0B0801008022
:1009F0008080B8C4848484848484050B0B0802003E
:100A000020200060202020202020F8050D0D080166
:100A1000FE08080018080808080808089060060B77
:100A20000B0801008080808890A0C0A09088840579
:100A30000B0B08020060202020202020202020F81E
:100A4000070808080100EC9292929292929206088E
:100A500008080100B8C484848484848406080808D3
:100A600001007884848484848478060A0A0801FE5C
:100A7000B8C484848484C4B88080060A0A0801FE4D
:100A8000748C848484848C7404040608080801002F
:100A9000B8C48480808080800608080801007884BB
:100AA000806018048478050A0A080100202020F8D4
:100AB000202020202018060808080100848484844F
:100AC00084848C740608080801008484844848489B
:100AD0003030070808080100829292929292926C3C
:100AE0000608080801008484483030488484060AD7
:100AF0000A0801FE84848484844C34040478060843
:100B000008080100FC040810204080FC030C0C08BD
:100B100003FF608080404080804040808060010E04
:100B20000E0804FE808080808080808080808080AD
:100B30008080030C0C0802FFC02020404020204091
:100B4000402020C007030308010862928C10102087
:100B50001000FEAAAA000180000001800073D1CA23
:100B6000104BD1CA1073DF800000018000000180AB
:100B70000055551010201000FEAAAA0001800000A8
:100B8000018000719DCA5273D3C252425D80000041
:100B90000180000001800055551010201000FEAAB1
:100BA000AA0001800000018000499DCA527A5DCAF6
:100BB00050499180000001800000018000555510CF
:100BC00010201000FEAAAA0001800000018000731E
:100BD00093CA52739FCA12721380000001800000F2
:100BE00001800055551010201000FEAAAA000180B7
:100BF00000000180004B93EA525B9FCA524B9380E6
:100C000000000180000001800055551010201000E8
:100C1000FEAAAA000180000001800074B9A6A425E4
:100C2000A5A4A474B98000000180000001800055D3
:100C3000551010201000FEAAAA00018000000180BB
:100C4000004BD1EA105BD1CA104BDF80000001805D
:100C5000000001800055551010201000FEAAAA00C7
:100C60000180000001800039CDC212319F8852738B
:100C70009380000001800000018000555510102075
:100C80001000FEAAAA000180000001800079CDC2F8
:100C900012799FC0527B9380000001800000018088
:100CA0000055551010201000FEAAAA000180000077
:100CB0000180004B9DC9207919C904493980000081
:100CC0000180000001800055551010201000FEAA80
:100CD000AA000180000001800025DDA4843C85A4D9
:100CE0008424998000000180000001800055551087
:100CF00010201000FEAAAA0001800000018000451B
:100D0000CDC4904489A8841099800000018000001F
:100D100001800055551010201000FEAAAA00018085
:100D20000000018000721DCA127213C21243DD80DE
:100D300000000180000001800055551010201000B7
:100D4000FEAAAA00018000000180007213CA12727C
:100D500013C21243CD8000000180000001800055C5
:100D6000551010201000FEAAAA000180000001808A
:100D7000000E2189200E218A200921800000018097
:100D8000000001800055551010201000FEAAAA0096
:100D90000180000001800039DDC202318D8850736E
:100DA0009F80000001800000018000555510102038
:100DB0001000FEAAAA000180000001800039DDC2F7
:100DC00002318D8842739D80000001800000018007
:100DD0000055551010201000FEAAAA000180000046
:100DE00001800071CFCA104A0DCA0271DD80000077
:100DF0000180000001800055551010201000FEAA4F
:100E0000AA00018000000180007245CA4C7245C2F0
:100E100044418F8000000180000001800055551082
:100E200010201000FEAAAA000180000001800072BC
:100E30005DCA42724DC250419F8000000180000097
:100E400001800055551010201000FEAAAA00018054
:100E500000000180003B9DC1203119890471398057
:100E60000000018000000180005555101020100086
:100E7000FEAAAA000180000001800039D3C21242FC
:100E80001FC21239D380000001800000018000558C
:100E9000551010201000FEAAAA0001800000018059
:100EA000002289B6882AA9A2D82289800000018060
:100EB000000001800055551010201000FEAAAA0065
:100EC000018000000180003B8DC252339F8A127264
:100ED0001380000001800000018000555510102093
:100EE0001000FEAAAA00018000000180007B8DC2D4
:100EF000527B9FC2127A13800000018000000180A3
:100F00000055551010201000FEAAAA000180000014
:100F1000018000398FC250324D8A42719D8000009D
:100F20000180000001800055551010201000FEAA1D
:100F3000AA0001800000018000339BC42225A394F5
:100F4000A2639B80000001800000018000555510C5
:100F500010201000FEAAAA000180000001800039C4
:100F6000DDC20832098A0871DD80000001800000BE
:100F700001800055551010201000FEAAAA00018023
:100F8000000001800039DDC2084189C0483B9D80D6
:100F90000000018000000180005555101020100055
:100FA000FEAAAA00018000000180000EF990200C2A
:100FB0002182201C2180000001800000018000555A
:100FC000551010201000FEAAAA0001800000018028
:100FD0000031CFCA104991C850338F800000018082
:100FE000000001800055551010201000FEAAAA0034
:100FF000018000000180001C8992D81CA9908810F3
:1010000089800000018000000180005555101020EB
:101010001000FEAAAA0001800000018000338FCAE0
:10102000507B91CA104A0F800000018000000180AF
:1010300000555500000008000E010A0A080400804F
:10104000800080808080808080070A0A080100106C
:10105000107C929090927C1010070A0A0801001CE4
:10106000202020F82020207CC206080808010184E6
:1010700048784848784884070A0A080100824428CA
:1010800010FE10FE101010010A0A08040080808073
:1010900080000080808080060A0A08010078848031
:1010A0007884847804847804020208020C90900802
:1010B0000A0A0800003C4299A5A1A1A599423C0555
:1010C0000707080205700878887800F806090908FB
:1010D00001002424484890484824240604040801B8
:1010E00000FC0404041010201000FEAAAA000180D5
:1010F000003A63C25433C98A4872498000000180B3
:101100000003C18000000180005555080A0A08004C
:10111000003C42B9A5A5B9A9A5423C0601010801B8
:101120000BFC03040408020A40A0A04007090908B8
:101130000101101010FE10101000FE050707080234
:1011400005708808708080F8050707080205708818
:10115000087008887003030308030A204080080A07
:101160000A0800FE42424242424266594080060C52
:101170000C0801FF7CF4F4F4F47414141414141C1B
:10118000020202080304C0C00302020802FE20C0DB
:101190000307070802052060A0202020200507077C
:1011A000080205708888887000F80609090801009F
:1011B000909048482448489090060A0A0801004444
:1011C000C4485050242C549C84060A0A0801004448
:1011D000C4485050283444889C060A0A080100C4B8
:1011E000244830D0242C549C84060A0A080100109C
:1011F000100010106084848478060E0E08010060D0
:101200001800003048488484FC84848484060E0ED0
:10121000080100186000003048488484FC848484FD
:1012200084060E0E080100304800003048488484CF
:10123000FC84848484060E0E08010064980000304B
:1012400048488484FC84848484060E0E0801004887
:101250004800003048488484FC84848484060E0E50
:10126000080100304830003048488484FC8484847D
:1012700084070A0A0801003E509090FE90909090DA
:101280009E060C0C0801FE78848480808080848413
:10129000781060060E0E08010060180000FC8080C7
:1012A00080F880808080FC060E0E08010018600027
:1012B00000FC808080F880808080FC060E0E080193
:1012C0000030480000FC808080F880808080FC0630
:1012D0000E0E08010048480000FC808080F88080E5
:1012E0008080FC050E0E08020060180000F8202027
:1012F000202020202020F8050E0E08020030C0001B
:1013000000F82020202020202020F8050E0E0802C2
:101310000060900000F82020202020202020F805E8
:101320000E0E08020090900000F8202020202020BF
:101330002020F8070A0A08000078444242F242429C
:10134000424478060E0E0801006498000084C4C46C
:10135000A4A494948C8C84060E0E080100601800DE
:101360000078848484848484848478060E0E080142
:1013700000186000007884848484848484847806DF
:101380000E0E080100304800007884848484848430
:10139000848478060E0E0801006498000078848426
:1013A00084848484848478060E0E080100484800F2
:1013B0000078848484848484848478060505080104
:1013C000028448304884060C0C0801FF0474888CA1
:1013D0009494A4A4C444B880060E0E0801006018BA
:1013E000000084848484848484848478060E0E08B7
:1013F0000100186000008484848484848484847858
:10140000060E0E0801003048000084848484848421
:1014100084848478060E0E08010048480000848405
:101420008484848484848478070E0E080100186004
:10143000000082824444281010101010060B0B0884
:1014400001008080F088848488F0808080060A0A09
:1014500008010070888890B0888484A498060C0CD9
:10146000080100601800007884047C84848C740671
:101470000C0C080100186000007884047C84848CC3
:1014800074060C0C080100304800007884047C8449
:10149000848C74060C0C08010064980000788404A5
:1014A0007C84848C74060C0C080100484800007889
:1014B00084047C84848C74060D0D0801003048304F
:1014C00000007884047C84848C7407080808010078
:1014D0007C92127E9090927C060A0A0801FE788423
:1014E0008080808084781060060C0C0801006018F1
:1014F0000000788484FC80808478060C0C0801004D
:1015000018600000788484FC80808478060C0C08C5
:10151000010030480000788484FC80808478060CC8
:101520000C08010048480000788484FC808084789E
:10153000050C0C080200C030000060202020202094
:1015400020F8050C0C08020030C0000060202020AC
:10155000202020F8050C0C0802006090000060209C
:101560002020202020F8050C0C080200909000009C
:1015700060202020202020F8060C0C0801006418B0
:101580002844047C848484848478060C0C0801003C
:1015900064980000B8C4848484848484060C0C0895
:1015A0000100601800007884848484848478060CA8
:1015B0000C08010018600000788484848484847896
:1015C000060C0C0801003048000078848484848470
:1015D0008478060C0C0801006498000078848484E8
:1015E00084848478060C0C08010048480000788444
:1015F000848484848478060707080101300000FC95
:10160000000030060A0A0801FF04788C9494A4A410
:10161000C47880060C0C08010060180000848484E3
:101620008484848C74060C0C08010018600000840B
:1016300084848484848C74060C0C08010030480077
:10164000008484848484848C74060C0C0801004813
:101650004800008484848484848C74060E0E0801FF
:10166000FE1860000084848484844C34040478056B
:101670000C0C0802FE8080F088888890A0C08080D2
:1016800080060E0E0801FE4848000084848484848D
:101690004C3404047800F41411241FBECFEFD8E0BA
:1016A000DEBFCDBF11E0A0E0B1E0EEEFF4E302C099
:1016B00005900D92AC3EB107D9F724E0ACEEB1E055
:1016C00001C01D92A13FB207E1F71BE0CCE4DBE0D3
:1016D00004C02197FE010E948017CB34D107C9F7BF
:1016E0000E948F150C947D1A0C940000089580E0E0
:1016F0000895E6E1F4E0A089B18982E08C93A485A5
:10170000B5851C92A685B78580E18C93108EA4893F
:10171000B58986E08C93A289B3898C9180618C9382
:10172000A289B3898C9188608C93A289B3898C91AA
:1017300080688C930288F389E02D80818F7D80837F
:10174000089590E0FC01EE52FF4F249182549F4F88
:10175000FC018491882399F090E0880F991FFC0187
:10176000EC54FF4FA591B491FC01E655FF4F8591D4
:1017700094918FB7F894EC91E22BEC938FBF08957E
:10178000AF92BF92CF92DF92EF92FF920F931F938F
:10179000CF93DF936C017B018B01040F151FEB01CD
:1017A0005E01AE18BF08C017D10759F06991D60184
:1017B000ED91FC910190F081E02DC6010995892BF6
:1017C00079F7C501DF91CF911F910F91FF90EF90B5
:1017D000DF90CF90BF90AF900895FC01538D448D62
:1017E000252F30E0842F90E0821B930B541710F0CC
:1017F000CF96089501970895FC01918D828D9817D9
:1018000061F0A28DAE0FBF2FB11D5D968C91928DB0
:101810009F5F9F73928F90E008958FEF9FEF0895E1
:10182000FC01918D828D981731F0828DE80FF11DAA
:10183000858D90E008958FEF9FEF0895FC01918DC5
:10184000228D892F90E0805C9F4F821B91098F73BE
:101850009927089586E194E00E941E0C21E0892BCF
:1018600009F420E0822F089580E090E0892B29F090
:101870000E942A0C81110C9400000895FC01A48D93
:10188000A80FB92FB11DA35ABF4F2C91848D90E0A2
:1018900001968F739927848FA689B7892C93A08985
:1018A000B1898C91837080648C93938D848D98130F
:1018B00006C00288F389E02D80818F7D80830895A2
:1018C000EF92FF920F931F93CF93DF93EC0181E090
:1018D000888F9B8D8C8D98131AC0E889F989808137
:1018E00085FF15C09FB7F894EE89FF896083E8896A
:1018F000F98980818370806480839FBF81E090E05C
:10190000DF91CF911F910F91FF90EF900895F62EE8
:101910000B8D10E00F5F1F4F0F731127E02E8C8D82
:101920008E110CC00FB607FCFACFE889F9898081C7
:1019300085FFF5CFCE010E943E0CF1CFEB8DEC0F71
:10194000FD2FF11DE35AFF4FF0829FB7F8940B8FE4
:10195000EA89FB8980818062CFCFCF93DF93EC014E
:10196000888D8823B9F0AA89BB89E889F9898C9187
:1019700085FD03C0808186FD0DC00FB607FCF7CF43
:101980008C9185FFF2CF808185FFEDCFCE010E9443
:101990003E0CE9CFDF91CF910895DC011696ED91D1
:1019A000FC91179712968C91481B477081E090E04C
:1019B00001C0880F4A95EAF7E60FF11D3081222316
:1019C00019F0832B8083089580958323FBCFFB013F
:1019D0004181DC0112962C911297421768F0139600
:1019E0002C911397241740F0608115962C91621763
:1019F00018F424810C94CD0C0895FC01808192810F
:101A0000980F92832181921760F494819F5F948351
:101A10009381890F821710F08FEF820F838381E00B
:101A2000089580E00895FC011282808181508383B3
:101A300014820895DB01ED91FC9109940F931F939B
:101A4000CF93DF931F92CDB7DEB70091B904109109
:101A5000BA04E091E804F091E90482E0099530E0ED
:101A600020E04AE0B80187EB94E00E941A0D182F9D
:101A7000E091E804F091E90483E00995E091E8043D
:101A8000F091E90480E009951123B9F16091B9045E
:101A90007091BA049E012F5F3F4F46E487EB94E0BC
:101AA0000E941A0D89818093B7046091B9047091E6
:101AB000BA049E012F5F3F4F47E487EB94E00E94FA
:101AC0001A0D89818093B8046091B9047091BA04A9
:101AD00030E020E048E487EB94E00E941A0D809308
:101AE000C2046091B9047091BA042AEE34E047E16F
:101AF00087EB94E00E941A0D11E0812F0F90DF9187
:101B0000CF911F910F910895CF93DF938091F004AF
:101B1000811105C081E08093F0040E941E0DC091E8
:101B2000B904D091BA04E091E804F091E90482E0AC
:101B30000995E091E804F091E90481E0099530E02D
:101B400020E044E1BE0187EB94E00E941A0D2AEEEA
:101B500034E047E1BE0187EB94E00E941A0DE0916A
:101B6000E804F091E90480E0DF91CF9109940F93AC
:101B70001F93CF93E091C504F091C604309719F0FC
:101B800087EB94E009950091B9041091BA04E091B3
:101B9000E804F091E90482E00995E091E804F0910D
:101BA000E90481E0099530E020E045E1B80187EBE8
:101BB00094E00E941A0DC82F882341F02AEE34E0E9
:101BC00047E1B80187EB94E00E941A0DE091E80428
:101BD000F091E90480E009958C2FCF911F910F912E
:101BE00008950B96FC01849108950A96FC01849156
:101BF0000895FC01849108950E94F90D882321F035
:101C0000823011F083E0089586E00895FC01E60F2C
:101C1000F11D849190E0982F88273196E4918E0FE2
:101C2000911D089568E00C94060E66E00C94060E73
:101C30005F926F927F928F929F92AF92BF92CF925C
:101C4000DF92EF92FF920F931F93CF93DF93EC01FC
:101C5000E62EF42EC22E0C811D81C8010E94F90DC2
:101C6000D82E8C819D810E94FC0D982E21E0AA2403
:101C7000AA94D21202C02FE0A22E8C819D810E94D4
:101C8000F50DD82E8C819D810E94F10DB82E8C818E
:101C90009D810E94120EE0E6EC1578F4009769F041
:101CA000080F191F91E6D92EBC14C0F4188A1B8A9C
:101CB0001C8A198A1A8A80E0A0C08C819D810E94AA
:101CC000150EF0E4FC1538F4009729F0080F191FE1
:101CD00081E4D82EE9CF0F5E1F4FE6CFBD1430F35D
:101CE000892D90E0F80124912F3F31F40F5F1F4FB1
:101CF000BD14E1F2D394F6CFCD1072C08C819D81DA
:101D00000E94F90D98012F5F3F4FF801882319F0C9
:101D1000823009F04EC084918B8BF90124912C8B79
:101D2000F8013396E491E88BF8013496E491E98B5D
:101D3000F8013596E491EA8B0115110509F4BBCF42
:101D40008C819D810E94FC0D3C89F31A9A89F91AB5
:101D50009FEF930F9F0D2CA94EA94F1508F449C072
:101D6000921718F49F1508F047C02B899989E90E3E
:101D70009FEF920F9E0D4BA95DA95E1508F44DC013
:101D8000941718F49E1508F037C0080F111D295F2D
:101D9000722E7694769476946F2C630E5E01FCE13D
:101DA000AF0EB11C872C912CF61431F15E2C68011A
:101DB0004AC08491982F9F7092509A8B82958F7011
:101DC000898BF9012491822F8F708C8B22952F7033
:101DD0002B8BF8013296E491E295EF70E88BACCF53
:101DE0003296E491EA21E80FF92FF11D0E0F1F1F23
:101DF0007FCF921708F0B6CF8889DF91CF911F91DE
:101E00000F91FF90EF90DF90CF90BF90AF909F9099
:101E10008F907F906F905F900895941708F0B2CFE5
:101E2000EBCFF60184916A817B815C8EFD8E1F8EE3
:101E30008E8F95014BE3CE010E941A0DFFEFCF1A52
:101E4000DF0A28E0520E8C2D801B871550F3080DF9
:101E5000191DF394A9CFFF920F931F93CF93DF9394
:101E6000D82FF62EC72FE091CC04F091CD0487EB4C
:101E700094E00995D80F0F2D1C2FC0E0F801219197
:101E80008F01211107C08C2FDF91CF911F910F91EE
:101E9000FF9008954D2F6C2F87EB94E00E94180E51
:101EA000C80FECCF2EE93FE0009709F40895F9013F
:101EB0003197F1F70197F8CFCF93DF9300D0CDB7EB
:101EC000DEB720ED37E03A8329839091BC00982358
:101ED00011F081E00FC029813A81232B81F4809198
:101EE000150481FDF6CF8091140481110DC091E09D
:101EF000909314040F900F90DF91CF910895298152
:101F00003A8121503109DFCF80E0F4CF84EA809319
:101F1000BC0061E080E80E945C0F811102C080E09B
:101F200008958091B900887F883051F0803141F068
:101F3000809114048111F3CF82E080931404EFCFD9
:101F400088E78093BB0084E88093BC0062E080E86F
:101F50000E945C0F882319F38091150481FD05C050
:101F60008091B900887F883119F781E0089584E96C
:101F70008093BC0064E080E10C945C0F8093BB0014
:101F800084E88093BC0063E080E80E945C0F8823B3
:101F9000A1F08091150481FD0DC08091B900887F6A
:101FA000883241F080911404811106C092E0909330
:101FB0001404089581E0089580E0089510921404B7
:101FC0000895809315041092B90084FF05C08CE039
:101FD0008093B8000C94DE0F88E4FACFCF93DF93A0
:101FE000FC0123A5222389F0EC010E94860F8111B8
:101FF00004C080E0DF91CF9108958EA1811107C0C8
:102000000E94BE0F8823A9F31BA681E0F3CF80E4D2
:10201000F7CF0F931F93CF93DF93C62FD42F890150
:10202000633001F138F4613099F0623009F449C04D
:10203000C1E012C0663029F1673091F16530C1F717
:102040000E94EE0F811117C00E94B70FC0E004C0BC
:10205000FC0186A50E94E10F8C2FDF91CF911F918B
:102060000F910895FC0116A221E023A74111E0CFB2
:102070000E94B70FDDCF8D2F0E94BE0F8111D8CFE8
:10208000E3CF0E94EE0F8823F9F2DD2389F2F801F5
:1020900081918F010E94BE0F8823B1F2D150F5CFFC
:1020A0000E94EE0F882381F2DD2311F2F801849162
:1020B0000E94BE0FC82F882379F20F5F1F4FD150A7
:1020C000F3CFFC0146A321E023A7B2CFDB01149696
:1020D000ED91FC9130E020E065E00994DB0114967D
:1020E000ED91FC9130E020E062E00994DB01149670
:1020F000ED91FC9130E020E063E00994CF92DF9213
:10210000EF92FF920F931F93CF93DF938C017B018C
:102110006A0180E0F601C491811110C081E0CF3FD7
:1021200049F04C2FB701C8010E946610882309F4BA
:1021300044C080E0BFEFCB1ADB0AECCF4FEFCF3FBC
:1021400089F3CE3FD9F1C03FA0F7C03E38F04C2F05
:102150004F70B701C8010E946E10EBCFC03D38F040
:102160004C2F4F70B701C8010E947610E2CFC03CDF
:10217000F8F0D7011496ED91FC9130E020E040E0BA
:1021800064E0C8010995C295C07FCE5FD0E0CE0162
:102190000E94520FD7011496ED91FC9130E020E09F
:1021A00041E064E0C8010995CE010E94520FC1CF01
:1021B000C7FDBFCF8C2F90E0F8CF80E0DF91CF91AB
:1021C0001F910F91FF90EF90DF90CF900895AF9205
:1021D000BF92CF92DF92FF920F931F93CF93DF9323
:1021E0006C018B01F42EE90180E1481709F47EC0EF
:1021F000841778F1AAE04A1709F461C0BFE04B17D1
:1022000009F47FC0F80102811381F2E3FF1609F49B
:10221000DDC0FF1508F48EC085E1F81609F4DBC0B7
:10222000A7E1FA1609F4ECC0B4E1FB1265C0D801CD
:102230001696ED91FC91179715968C918E0F9F2F06
:10224000911D11928E179F07E1F7C8010E94130D8F
:1022500053C0E1E14E1709F451C0F5E14F13D2CF5D
:10226000FB01A280B3804CE750E0C6010E947E10C3
:10227000D50114964C91406BB801C6010E946610BE
:1022800041E0B801C6010E946E10F5012681378138
:10229000D8011496ED91FC91D50115964C9166E00C
:1022A000C601099581111CC080E0DF91CF911F917B
:1022B0000F91FF90DF90CF90BF90AF900895DB011A
:1022C0001496ED91FC9130E020E042E061E0C6011F
:1022D000099544E850E0B801C6010E947E1092CFF3
:1022E00040E0B801C6010E9476108CCF43E750E071
:1022F000B801C6010E947E1081E0D7CF48E650E0C9
:10230000F7CF41E0C6010E94761040E0B801C60157
:102310000E946E1041E8B801C6010E946610488113
:10232000B801C6010E94661040E0B801C6010E94D3
:102330007610E2CFE6E4FE1609F46CC0F7E4FF166F
:1023400009F46DC08BE3F812D7CF99818B8138E007
:10235000390F813031F0833011F0392F02C0392F1D
:10236000985021E0D80113964C91491708F420E0C9
:1023700041E0391708F040E091E0F801528135174B
:1023800008F490E0322F342B932319F4242309F41A
:10239000B3CFFA80D12CC12C843048F490E0FC01FA
:1023A000E75EFE4FC0808B5E9E4FDC01DC90F7FE47
:1023B00004C0BE01C8010E94E70C88818C0D88838F
:1023C00089818D0D8983FF0C91F796CFBE01C801DD
:1023D0000E94E70C91CFC8010E94FD0C882309F4EC
:1023E00063CFD8011696ED91FC91179715968C91B5
:1023F0008E0F9F2F911D11928E179F07E1F77CCFB3
:102400001882F80182818983858181508A83838142
:102410008B8372CFD80115968C9188836DCFF8018C
:102420008181FBCF2F923F924F925F926F927F926A
:102430008F929F92AF92BF92CF92DF92EF92FF92D4
:102440000F931F93CF93DF93FB01EB01C353DF4F38
:10245000812C912C5401212C312C00E010E0482ECD
:10246000512C712C612CF190A3019201B101C80192
:102470000E946517AB01BC0197E07595679557956C
:1024800047959A95D1F7CF2CD12CF12CE12CC81877
:10249000D908EA08FB08C40ED51EE61EF71E410146
:1024A0005801CE17DF0709F040C0A7019601C70108
:1024B000B6010E9465174B015C019101A801B101B1
:1024C000C8010E946517860E971EA81EB91EA3019B
:1024D0009201C701B6010E9465179B01AC0187E01C
:1024E00055954795379527958A95D1F7B101C8013C
:1024F0000E946517A5019401261B370B480B590B49
:10250000CA01B901DF91CF911F910F91FF90EF9018
:10251000DF90CF90BF90AF909F908F907F906F9003
:102520005F904F903F902F900895160187019BCFA9
:10253000DF92EF92FF920F931F93CF93DF93EC0103
:10254000D62E1CAD0BAD7C0184E0E80EF11CE98DAC
:10255000FA8DC7010995412F480F2D2D602FC70116
:102560000E94180E9BAD890F8BAF81E090E0DF9148
:10257000CF911F910F91FF90EF90DF9008950895F4
:1025800090E080E00895FC0101900020E9F7319788
:10259000AF01481B590BBC0186E194E00C94C00BC1
:1025A000CF92DF92EF92FF92CF93DF93EC01BC01C9
:1025B0008AED0E9412126B017C01BE0121E8C21655
:1025C00026E9D20628E9E206F1044CF185E90E94E9
:1025D000121261387649884991050CF0E1C0BE01BC
:1025E0008FE70E94121261387649884991050CF0F4
:1025F000D9C0BE0186E60E94121261387649884928
:1026000091050CF0D1C0BE0189E40E94121261381C
:102610007649884991050CF497C081E4B6C082EDF3
:102620000E941212613876498849910554F1BE0121
:1026300085E90E94121261387649884991050CF0AB
:10264000B5C0BE018FE70E941212613876498849F1
:1026500091050CF0ADC0BE0186E60E9412126138F1
:102660007649884991050CF0A5C0BE0189E40E9415
:10267000121261387649884991050CF465C082E4EC
:1026800084C0BE0188EC0E941212613876498849E4
:1026900091054CF1BE0185E90E941212613876491C
:1026A000884991050CF088C0BE018FE70E94121284
:1026B00061387649884991050CF080C0BE0186E6F4
:1026C0000E94121261387649884991050CF078C051
:1026D000BE0189E40E941212613876498849910549
:1026E0009CF183E452C0BE018DEB0E94121261384E
:1026F00076498849910544F1BE0185E90E9412128C
:1027000061387649884991050CF05CC0BE018FE7BD
:102710000E94121261387649884991050CF054C024
:10272000BE0186E60E9412126138764988499105F9
:102730000CF04CC0BE0189E40E9412126138764947
:10274000884991050CF044C080916E028823E9F01D
:10275000282F082E000C330B3F938F938BE091E0D2
:102760009F938F938BE391E09F938F938AE091E007
:102770009F938F930E94A5178DB79EB708960FB6AB
:10278000F8949EBF0FBE8DBF80E080936E02C7019C
:10279000B601DF91CF91FF90EF90DF90CF90089539
:1027A00081E3F3CF82E3F1CF83E3EFCF84E3EDCF97
:1027B00085E3EBCF86E3E9CF87E3E7CF88E3E5CF97
:1027C00089E3E3CF83E2E1CF80E3DFCF8AE2DDCFAD
:1027D00084E4DBCF1F920F920FB60F9211242F9338
:1027E0003F934F935F936F937F938F939F93AF9399
:1027F000BF93EF93FF9386E194E00E943E0CFF911C
:10280000EF91BF91AF919F918F917F916F915F9168
:102810004F913F912F910F900FBE0F901F901895E1
:102820001F920F920FB60F9211242F938F939F93A5
:10283000EF93FF93E0912604F09127048081E091CB
:102840002C04F0912D0482FD1BC0908180912F04F7
:102850008F5F8F7320913004821741F0E0912F0435
:10286000F0E0EA5EFB4F958F80932F04FF91EF918C
:102870009F918F912F910F900FBE0F901F901895E1
:102880008081F4CF1F920F920FB60F9211242F93D5
:102890003F938F939F93AF93BF93809174029091D6
:1028A0007502A0917602B09177023091730223E015
:1028B000230F2D3758F50196A11DB11D20937302EA
:1028C0008093740290937502A0937602B09377027E
:1028D00080916F0290917002A0917102B09172028A
:1028E0000196A11DB11D80936F0290937002A09379
:1028F0007102B0937202BF91AF919F918F913F91FE
:102900002F910F900FBE0F901F90189526E8230F60
:102910000296A11DB11DD2CF1F920F920FB60F923A
:1029200011242F938F939F93EF93FF9384E086BBA3
:1029300080911304813099F5E0910801F09109012B
:10294000CF0101969093090180930801809179004D
:10295000808380916C0290916D02019690936D023C
:1029600080936C0280916C0290916D028A39914043
:1029700061F488E792E09093090180930801109236
:10298000130410926D0210926C02FF91EF919F91CF
:102990008F912F910F900FBE0F901F9018958091DF
:1029A00013048111F2CFE0910801F0910901CF01E8
:1029B00001969093090180930801809179008083AA
:1029C00080916C0290916D02019690936D028093BC
:1029D0006C0280916C0290916D028D3C9105A9F67C
:1029E00081E080931304D1CF10921904109218043F
:1029F00088EE93E0A0E0B0E080931A0490931B046B
:102A0000A0931C04B0931D0481E291E090931704FD
:102A10008093160485EC90E0909323048093220425
:102A200084EC90E0909325048093240480EC90E063
:102A3000909327048093260481EC90E090932904DE
:102A40008093280482EC90E090932B0480932A04D6
:102A500086EC90E090932D0480932C0410922F0428
:102A60001092300410923104109232041092B60485
:102A70001092B50483E391E09093B4048093B3047F
:102A80001092EE041092EF041092F0041092BC0425
:102A90001092BB041092BE041092BD041092C004A8
:102AA00081E08093BF0482E28093C1041092C60447
:102AB0001092C504EAEDF4E088EE94E02FEF219344
:102AC0008E179F07E1F781E08093D70427E73BE06B
:102AD0003093CD042093CC048093CE041092CF0485
:102AE0001092D00480E48093D1041092D20486E73F
:102AF0009BE09093E9048093E8048FE091E0909349
:102B0000BA048093B90482E18093E5040E941E0D0B
:102B100083E391E09093B4048093B3040895CF933A
:102B2000DF93CDB7DEB7C054D1090FB6F894DEBF3E
:102B30000FBECDBF789484B5826084BD84B58160BA
:102B400084BD85B5826085BD85B5816085BD809178
:102B50006E00816080936E001092810080918100F0
:102B600082608093810080918100816080938100E8
:102B7000809180008160809380008091B1008460AA
:102B80008093B1008091B00081608093B00080910B
:102B90007A00846080937A0080917A0082608093CA
:102BA0007A0080917A00816080937A0080917A0027
:102BB000806880937A001092C1008091C2048832AC
:102BC00009F061C18FEF8093D7048091BB0490918D
:102BD000BC04865E904099F186EE90E09093BC0430
:102BE0008093BB048091CE0481115DC1EBEEF0E0D7
:102BF000E491E093CF04E2EFF0E0E491E093D004BD
:102C00008091CF04082E000C990B2091D004821BD8
:102C1000910927FD93952091D104203441F0829FA2
:102C2000C001112426E0969587952A95E1F78093B7
:102C3000D20487E79BE09093CD048093CC040E945C
:102C4000790B0E94790B80E491E00E94C3128EE51B
:102C500091E00E94C31289E00E94A10B8AE00E94C9
:102C6000A10B8BE00E94A10B8CE00E94A10B8DE0D8
:102C70000E94A10B8FE380937E0010927C008091D4
:102C80007C00806C80937C0080917C0080628093CB
:102C90007C0010927A0010927B0080917A008E6AFC
:102CA00080937A0080917B00856480937B001092F2
:102CB000800010928100109285001092840089EFAC
:102CC00090E09093870080938600809180008061DF
:102CD0008093800080918100886180938100809141
:102CE0007C00807F80937C0080917A008064809358
:102CF0007A008091810082608093810078940E94A4
:102D0000840D61E871E08EE00E942B0F6FE871E0A6
:102D10008EE10E942B0F6EE971E08DE20E942B0F75
:102D20006DEA71E08EE30E942B0F0E94B70D8111B6
:102D3000E8CF02EC11E0CE0101967C0180E0C82EC4
:102D400080E0D82E80911304813061F490911204B8
:102D5000911108C0809312042B9A88E792E00E9498
:102D6000D0122B988091130481110CC08091120411
:102D7000813041F4109212042C9A85E493E00E9471
:102D8000D0122C986AE071E08DEB91E00E949517CB
:102D9000892BD1F42D9A8AE091E09F938F931F9312
:102DA0000F93FF92EF920E94A517C7010E94C312D2
:102DB0006DEC71E08AE091E00E949E170F900F90F9
:102DC0000F900F900F900F906AE071E082ED91E00C
:102DD0000E949517892BD1F42D988AE091E09F935A
:102DE0008F931F930F93FF92EF920E94A517C70135
:102DF0000E94C3126DEC71E08AE091E00E949E1780
:102E00000F900F900F900F900F900F906AE071E06D
:102E100087ED91E00E949517892BF1F42D988AE0B7
:102E200091E09F938F931F930F93FF92EF920E94D5
:102E3000A517C7010E94C3128CED91E00E94C31236
:102E40006DEC71E08AE091E00E949E170F900F9068
:102E50000F900F900F900F900E94840D6AE071E028
:102E60008EE10E942B0F0E94B70D8111F7CFC11484
:102E7000D10409F467CF0E942A0C882309F462CF99
:102E80000E9400005FCF823011F483E09CCE81303D
:102E900009F499CE803309F098CE8FEF8093D70450
:102EA0008093D80492CE813041F4E5EFF0E0E491D4
:102EB000E093CF04E6EFF0E0A0CEE3EFF0E0E491A2
:102EC000E093CF04E4EFF0E098CEDB018F939F9383
:102ED0000E947517BF91AF91A29F800D911DA39F76
:102EE000900DB29F900D112408950E948617A59F02
:102EF000900DB49F900DA49F800D911D11240895F5
:102F0000EE0FFF1F0590F491E02D0994A29FB001F0
:102F1000B39FC001A39F700D811D1124911DB29F0D
:102F2000700D811D1124911D0895FB01DC018D910F
:102F3000019080190110D9F3990B0895FB01DC0170
:102F400001900D920020E1F70895AEE0B0E0EBEAC9
:102F5000F7E10C94541A0D891E8986E08C831A833C
:102F600009838FEF9FE79E838D83AE01475E5F4F9E
:102F70006F89788DCE0101960E94C8172F81388500
:102F8000020F131FF80110822E96E4E00C94701AC1
:102F9000ABE0B0E0EEECF7E10C94461A7C013B01AB
:102FA0008A01FC0117821682838181FFC8C1CE018C
:102FB00001965C01F7019381F30193FD859193FFE5
:102FC00081913F01882309F453C1853239F493FD7F
:102FD000859193FF81913F01853229F4B70190E0FB
:102FE0000E94B819E7CF912C212C312CFFE1F31569
:102FF00038F08B3211F190F4803209F1833229F1EB
:1030000037FC3CC020ED280F2A3050F536FE20C09A
:103010008AE0989E200D1124922E06C08D3291F0E8
:10302000803371F7689430F8F30193FD859193FF35
:1030300081913F018111DACF21C0689431F8689401
:1030400032F8F2CF689433F8EFCF689434F8ECCFCD
:10305000EAE02E9E200D1124222E689435F8E4CF4C
:103060008E3229F436FC04C1689436F8DDCF8C36F4
:1030700019F4689437F8D8CF8836B1F2982F9F7D2D
:1030800095549330E0F08336A1F18337C1F1833555
:1030900009F063C02801F2E04F0E511CF801C08016
:1030A000D180692D70E036FC02C06FEF7FEFC60162
:1030B0000E94A2194C01689437F882010AC00C5F83
:1030C0001F4FFFE3F98388248394912C6501E894D2
:1030D00037F833FE2DC0522C8114910471F5552020
:1030E00009F468CFB70180E290E00E94B8195A94C1
:1030F000F6CFF801808189830E5F1F4FE4CF28014E
:10310000F2E04F0E511CF801C080D180692D70E0B3
:1031100036FC02C06FEF7FEFC6010E94AD194C0173
:103120008201D5CFB70180E290E00E94B8192A94BD
:103130002814190409F0B0F7CECFF60137FC8591B9
:1031400037FE81916F01B70190E00E94B8195110CC
:103150005A94F1E08F1A9108BFCF843619F089365E
:1031600009F077C0F80137FE6BC060817181828100
:1031700093810C5F1F4FF32DFF763F2E97FF09C001
:1031800090958095709561957F4F8F4F9F4F689474
:1031900037F82AE030E0A5010E94E819C82ECA18C5
:1031A0008C2C432C36FE0CC0E89440F8C91440F433
:1031B00034FE05C032FC03C0F32DFE7E4F2E892C59
:1031C00044FE95C0FE01EC0DF11D8081803309F0B5
:1031D00087C0242D297E422E842D8870582E43FCD2
:1031E00095C040FE8FC09C2C821418F42C0C922C9D
:1031F000981844FE91C0B70180E390E00E94B8198E
:1032000042FE09C088E790E041FE02C088E590E0F8
:10321000B7010E94B819C91408F48AC0CA94D12C05
:103220009FEFC91AD90ACA0CDB1CF60182916F0103
:10323000B70190E00E94B819AC14BD04B1F74FCFAC
:1032400060817181072E000C880B990B0E5F1F4F58
:1032500092CFD32CE894D4F82AE030E0853739F1C6
:10326000232D297FD22E8F3601F148F48835A9F01D
:10327000F701868197812B96E2E10C94621A8037E0
:1032800049F08837A9F7D4FE02C06894D2F820E14B
:1032900030E00DC06894D4F8F6CF34FE03C0822F1E
:1032A0008660D82E20E132E002C028E030E0F8014C
:1032B000D7FE0FC060817181828193810C5F1F4FA7
:1032C000A5010E94E819C82ECA183D2CE89437F8C9
:1032D00067CF6081718190E080E00E5F1F4FF0CF7B
:1032E00042FC02C0839478CF8394839475CF842D5D
:1032F000867809F471CFF6CFB70180E290E00E94A2
:10330000B81983948214C0F3512C73CF522C5818DF
:10331000821408F46ECFF8CF842D867809F47BCF21
:103320008BE241FE80E247FC8DE2B70190E071CF75
:10333000B70180E390E00E94B8199A946CCF8FEFA8
:103340009FEF99CFFC010590615070400110D8F7B4
:10335000809590958E0F9F1F0895FC0161507040DD
:1033600001900110D8F7809590958E0F9F1F0895BA
:103370000F931F93CF93DF93182F092FEB018B81AE
:1033800081FD09C01FEF0FEF812F902FDF91CF91AB
:103390001F910F91089582FF14C02E813F818C816F
:1033A0009D81281739073CF4E881F981CF01019606
:1033B0009983888310838E819F8101969F838E835A
:1033C000E3CFE885F985812F0995892BA1F3DACF21
:1033D000FA01AA27283051F1203181F1E8946F9346
:1033E0006E7F6E5F7F4F8F4F9F4FAF4FB1E03ED0EC
:1033F000B4E03CD0670F781F891F9A1FA11D680F8A
:10340000791F8A1F911DA11D6A0F711D811D911DBC
:10341000A11D20D009F468943F912AE0269F112431
:103420003019305D3193DEF6CF010895462F477095
:10343000405D4193B3E00FD0C9F7F6CF462F4F70F0
:10344000405D4A3318F0495D31FD4052419302D04E
:10345000A9F7EACFB4E0A6959795879577956795F4
:10346000BA95C9F700976105710508959B01AC01F4
:103470000A2E06945795479537952795BA95C9F71B
:10348000620F731F841F951FA01D08952F923F92F6
:103490004F925F926F927F928F929F92AF92BF9264
:1034A000CF92DF92EF92FF920F931F93CF93DF9310
:1034B000CDB7DEB7CA1BDB0B0FB6F894DEBF0FBE6D
:1034C000CDBF09942A88398848885F846E847D84BA
:1034D0008C849B84AA84B984C884DF80EE80FD80BC
:1034E0000C811B81AA81B981CE0FD11D0FB6F89432
:0E34F000DEBF0FBECDBFED010895F894FFCFF3
:1034FE00084000000080EC0178023030303000E7E8
:10350E001000010910000100FF0100FF0000000083
:10351E0000600CC00BED0BAD0C1E0CFC0B100C0068
:10352E000000009812C00BC012BF12257325630055
:10353E000A5869616F6C61626120746573742C2026
:10354E0044544D46206465636F6465720A000A55E3
:10355E0073657320696E7465726E616C20312E31E5
:10356E005620414443207265666572656E63650A36
:10357E000053796E63696E67204443463737002ED9
:10358E002E2E2E2E2E2E2E2E2E2E2E2E2E00506C1B
:10359E006561736520776169742E2E2E0032206D61
:1035AE00696E7574657320746F20676F00313233E6
:1035BE003400466F756E642025730D0A003030306E
:1035CE003000313131310039353931002C20686904
:0C35DE00207869616F6C6162610A000076
:00000001FF
